:020000040000FA
:040000008031132810
:100008007E1480318B1E09280A2811280B1D0D2803
:100018000E2811288231662280317E100900803135
:1000280015288531B9258031FD003B3084008530A5
:1000380085003E30860000308700163085318B25DC
:100048008031FB01FC01E401203084000030850090
:100058001E308531912580317E1020008531672D35
:10006800FB1B372838284F287B1B3B283C284F2868
:100078007B193F2841280130422800302000DF004A
:10008800FB194728492801304A2800305F06031D1C
:100098004E284F28532822008E100E108028FB1D52
:1000A800562857286A2822000E1020003D080319F8
:1000B8005E285F28622822008E10802822008E1475
:1000C800C8302000DF005F08BC0080287B1D6D2839
:1000D8006E28802822008E1020003C0803197528FD
:1000E8007628792822000E10802822000E14C830A5
:1000F8002000DF005F08BD00FB1B832884289B28A5
:100108007B1B872888289B287B188B288D28013003
:100118008E2800302000DF00FB1893289528013036
:10012800962800305F06031D9A289B289F282200E6
:100138000C138C13CC28FB1CA228A328B628220059
:100148008C1320003B080319AA28AB28AE282200EC
:100158000C13CC2822000C17C8302000DF005F08E1
:10016800BA00CC287B1CB928BA28CC2822000C134A
:1001780020003A080319C128C228C52822008C1378
:10018800CC2822008C17C8302000DF005F08BB0095
:10019800200024082504031DD228D328D428AC0124
:1001A80022082304031DD928DA28DB28AB018E187E
:1001B800DE28DF28EB280E18E228E328EB280C1BA2
:1001C800E628E728EB288C1FEA28EB28EF282200EE
:1001D8000E138E124A290D307D020318F428F528D3
:1001E800032922008E1220002C080319FC28FD2860
:1001F800002922000E174A2922000E134A291A3014
:100208007D02031808290929172922008E122000C7
:100218002C03031D10291129142922000E174A291D
:1002280022000E134A2926307D0203181C291D2995
:100238002B2922000E1320002B0803192429252915
:10024800282922008E164A2922008E124A292200C5
:100258000E1320002B03031D3229332936292200CF
:100268008E164A2922008E124A29B90161290F30B7
:10027800DF005F08B90061291930DF005F08B900A5
:1002880061292330DF005F08B90061297C0820005C
:10029800DF00E0016008003A0319532961295F086B
:1002A800003A03193929013A03193B29033A03197A
:1002B8004029013A031945296129843105248031EF
:1002C800080020000C1969296A29742935080319BE
:1002D8006E296F2972290130B5027929FB15792910
:1002E8001E30DD005D08B500FB1110197C297D2941
:1002F8008729340803198129822985290130B40204
:100308008C297B158C291E30DD005D08B4007B111B
:100318000D198F2990299A293308031994299529A9
:1003280098290130B3029F29FB149F291E30DD0054
:100338005D08B300FB108F1BA229A329AD29320841
:100348000319A729A829AB290130B202B2297B14C5
:10035800B2291E30DD005D08B2007B108D1AB52968
:10036800B629D32931080319BA29BB29D72901305D
:10037800B1023108031DC129C229D7290830A400B8
:100388000730A5000130DD005D08AC0703302C0202
:10039800031CCF29D029D229AC01D729D7291E304F
:1003A800DD005D08B1009019DA29DB29F829300849
:1003B8000319DF29E029FC290130B0023008031DA8
:1003C800E629E729FC290830A2000730A3000130FC
:1003D800DD005D08AB0703302B02031CF429F52967
:1003E800F729AB01FC29FC291E30DD005D08B000AF
:1003F8008C19FF29002A0A2A2D080319042A052A1C
:10040800082A0130AD020F2AFB170F2A1E30DD0023
:100418005D08AD00FB130F19122A132A392A2E087A
:100428000319172A182A3E2A0130AE022E08031D86
:100438001E2A1F2A3E2AB030A0000430A100E4146E
:100448007C08031D282A292A2C2AFC01FC0A3E2A9A
:100458000130DD005D08AA0703302A02031C352A93
:10046800362A382AAA013E2A3E2AE4101E30DD0028
:100478005D08AE008E1B412A422A602A2F08031904
:10048800462A472A652A0130AF022F08031D4D2A44
:100498004E2A652AB030A0000430A100641401304F
:1004A800DD005D08FC0704307C02031C5C2A5D2A21
:1004B8005F2AFC01652A652A64101E30DD005D088C
:1004C800AF0008000B112000630895006108620462
:1004D80003196F2A702A752A62088A0061080A00BF
:1004E800823120003D0803197A2A7B2A7D2A0130AF
:1004F800BD023C080319812A822A842A0130BC02E1
:100508003B080319882A892A8B2A0130BB023A083A
:1005180003198F2A902A922A0130BA0252085304EA
:100528000319972A982A9D2A0130D2020030D33B1A
:10053800BF2AE830D2000330D30024082504031969
:10054800A62AA72AAB2A0130A4020030A53B22081C
:1005580023040319B02AB12AB52A0130A2020030B7
:10056800A33B200821040319BA2ABB2ABF2A013059
:10057800A0020030A13BFB1FC22AC32AD62AFB1ABD
:10058800C62AC72ADB2A280829040319CC2ACD2A17
:10059800D22A0130A8020030A93BDB2AFB164030E2
:1005A800FB06DB2AFB128830A8001330A9007D085F
:1005B8000319DF2AE02AE32A0130FD02E72A323054
:1005C800D8005808FD00260827040319EC2AED2A4C
:1005D800F22A0130A6020030A73B512B0B3036021D
:1005E800031CF72AF82A232BB6014D08D1004C0822
:1005F800D0004B08CF004A08CE004108CD00400883
:10060800CC003F08CB003E08CA004508C10044089A
:10061800C0004308BF004208BE004908C50048089A
:10062800C4004708C3004608C2005108C900500862
:10063800C8004F08C7004E08C6001030FB0601303E
:10064800D8005808B6076430A6000030A7000B3061
:10065800F6000030F7003908D800D9015808F00032
:100668005908F1003608DA00DB015A08F2005B0885
:10067800F30085311C2582317108F9007008F800F3
:1006880084319A24823176082000DC005C08B800A6
:1006980038083902D8005808B70008007B1F552BC6
:1006A800562B592B220090105B2B2200901420000F
:1006B8008E185F2B602B642B0E1C632B642B672B0F
:1006C80022000C12692B22000C1620000C1B6D2B2B
:1006D8006E2B722B8C1F712B722B752B22008D1099
:1006E800842B22008D14842B22000D128D15A12B32
:1006F80022000D128D11A12B22000D168D15A12B94
:1007080020002C08DD00DE015E08003A03198D2B5D
:10071800802B5D08013A0319782B033A03197C2BC7
:10072800802B22000C108C14B22B22000C108C1081
:10073800B22B22000C148C14B22B20002B08DD00E5
:10074800DE015E08003A0319AA2B9D2B5D08013AC9
:100758000319952B033A0319992B9D2B7C08031930
:10076800B62BB72BFE2BC72B22000F138F14101498
:10077800EA2B22000F178F101014EA2B22000F17F4
:100788008F141010EA2B20002A08DD00DE015E0815
:10079800003A0319D02BEA2B5D08003A0319B82B4D
:1007A800013A0319BD2B033A0319C22BEA2B220085
:1007B8008F120F148C16042C22008F160F108C1613
:1007C800042C22008F160F148C12042C7C08200095
:1007D800DD00DE015E08003A0319F32B042C5D08E6
:1007E800013A0319DB2B033A0319E02B013A0319E9
:1007F800E52B042C0F178F1410148F160F148C165A
:100808000800200020082104031D0B2C0C2C0D2CA3
:10081800FC017C080319112C122C942C0C1E152C8D
:10082800162C942C812C39087D0203181C2C1D2CA5
:10083800232C22000E168F158E150E15992C2200CA
:100848000E128F118E110E11992C38087D02031883
:100858002E2C2F2C3B2C4D088A004C080A00843182
:10086800200047088A0046080A008431462C4B08B5
:100878008A004A080A008431200049088A0048088A
:100888000A008431200043088A0042080A008431A3
:1008980020003F088A003E080A008431992C7B1EFC
:1008A800562C572C692C38087D0203185C2C5D2CBB
:1008B800632C22000E168F158E150E15992C22000A
:1008C8000E128F118E110E11992C37087D02031804
:1008D8006E2C6F2C752C22000E168F158E150E158A
:1008E800992C22000E128F118E110E11992C2200B4
:1008F8000E128F118E110E11992C2A08DD00DE01BF
:100908005E08003A0319892C7B2C5D08003A03190C
:10091800172C013A0319292C033A0319532C7B2C61
:1009280022000E128F118E110E1108002000D50121
:10093800F71F9F2CA02CA72CF609F709F60A031914
:10094800F70AD501D50AF91FAA2CAB2CB42CF80943
:10095800F909F80A0319F90A0130FA007A08D506E4
:10096800D601D701760877040319BB2CBC2CEB2CD5
:10097800D401D40AC82C0130F635F70D890BC02CE8
:100988000130FA007A08D407F71FCB2CCC2CBF2CE7
:100998000130D635D70D890BCD2C77087902031D88
:1009A800D72C76087802031CDA2CDB2CE02C76088E
:1009B800F8027708F93B56140130F736F60C890B24
:1009C800E12C0130D402031DEA2CEB2CCC2C550869
:1009D8000319EF2CF02CF52CD609D709D60A0319E0
:1009E800D70A5708F7005608F60008000330220017
:1009F800900063308F0033308C001A308D008E01E8
:100A08000C30210090000C308C00E4308D008030D8
:100A18008E0084308F0023008F018D0190018C019E
:100A2800240090018D012100951722009D010800E6
:100A3800F401F501701C212D222D262D7208F407D2
:100A48007308F53D0130F235F30D890B272D013080
:100A5800F136F00C890B2C2D70087104031D352D0F
:100A6800362D1E2D7508F1007408F0000800A13419
:100A78000534AD340534AA340534B6340534A43409
:100A88000534B0340534A7340534B3340534AA34F6
:100A98000534B6340534E834033421001508C03968
:100AA800113895000A30200095000A30DF005F08F1
:100AB800E3000B118B16BA30DD000530DE008531FE
:100AC8009725853108008531772585318B17813148
:100AD8006521853180313420853183315223853138
:100AE8006B2D803113288431FA2485318531842592
:100AF800853185319D258531853151258531080020
:100B08006A30210099009801220096010800FE0031
:100B180012001E00FE0B8C2D003464008001013190
:100B2800890B922D003420005E08E2005D08E10088
:100B38000800163021009700080022008E110800D6
:100B480022000E12080022008F11080022000E1148
:100B5800080022008E15080022000E160800220048
:0E0B68008F15080022000E1508003234080018
:020000040001F9
:04000E0024EEFFDEFF
:00000001FF
