:020000040000FA
:040000008031132810
:100008007E1480318B1E09280A2811280B1D0D2803
:100018000E2811288231972280317E100900803104
:1000280015288631AC268031FD00253084008630C5
:1000380085003F308600003087001B3086318426DB
:100048008031F001F10120308400003085001F303C
:1000580086318A2680317E1020008631572E71190C
:10006800362837283E2820005308540403193D2811
:100078003E28532822008E100E100C138C132000DB
:10008800AB01AA0122000E138E120E128F118E11CF
:100098000E112000B501D901D90A70137629701EF6
:1000A800562857287B28F0195A285B287B2870196E
:1000B8005E285F287B28F018622863287B28F119BE
:1000C800662867287B283E0803196B286C286F2848
:1000D80022008E10762822008E14C8302000E300FB
:1000E8006308BD0022000E100C138C13F828F01DB5
:1000F8007E287F28A328701A82288328A3287019AD
:1001080086288728A328F0188A288B28A328F1197D
:100118008E288F28A3283D08031993289428972808
:1001280022000E109E2822000E14C8302000E30082
:100138006308BE0022008E100C138C13F828701D63
:10014800A628A728CB28701AAA28AB28CB28F019EC
:10015800AE28AF28CB28F018B228B328CB28F1193D
:10016800B628B728CB283C080319BB28BC28BF28C9
:1001780022000C13C62822000C17C8302000E30008
:100188006308BB0022008E100E108C13F828F01C98
:10019800CE28CF28F328701AD228D328F328F019AC
:1001A800D628D728F3287019DA28DB28F328F1197C
:1001B800DE28DF28F3283B080319E328E428E7288A
:1001C80022008C13EE2822008C17C8302000E30090
:1001D8006308BC0022008E100E100C13F8282200B1
:1001E8008E100E100C138C137D080319FC28FD28A3
:1001F80000290130FD02052928302000E3006308AA
:10020800FD00200024082504031D0B290C290D29B5
:10021800AB0122082304031D122913291429AA015A
:10022800701A172918292429F0191B291C2924298F
:1002380070191F2920292429F01C23292429282959
:1002480022000E138E1273290B307D0203182D29FC
:100258002E293C2922008E1220002B08031935294B
:100268003629392922000E17732922000E13732903
:1002780015307D02031841294229512922008E1286
:10028800023020002B06031D4A294B294E29220043
:100298000E17732922000E1373291F307D020318CD
:1002A80056295729652922000E1320002A08031908
:1002B8005E295F29622922008E16732922008E1278
:1002C800732922000E13023020002A06031D6D290F
:1002D8006E29712922008E16732922008E1284310C
:1002E800B5248031080020005308540403197D29DF
:1002F8007E298029962A962A8C19832984298E2971
:100308002C080319882989298C290130AC029329E2
:10031800F115962A1E30E3006308AC00F1110C19A0
:1003280096299729A129340803199B299C299F29D3
:100338000130B402A6297016A6291E30E30063080E
:10034800B40070121019A929AA29B429330803196D
:10035800AE29AF29B2290130B302B929F015B9295C
:100368001E30E3006308B300F0110D19BC29BD2944
:10037800C72932080319C129C229C5290130B20287
:10038800CC297015CC291E30E3006308B200701127
:100398008F1BCF29D029DA2931080319D429D52967
:1003A800D8290130B102DF29F014DF291E30E3001B
:1003B8006308B100F010701AE229E329962AF019AF
:1003C800E629E729962A7019EA29EB29962AF01CCA
:1003D800EE29EF29F029962A8D1AF329F429112AF2
:1003E80030080319F829F929152A0130B002300814
:1003F800031DFF29002A152A0830A4000730A5008C
:100408000130E3006308AB0703302B02031C0D2AFD
:100418000E2A102AAB01152A152A1E30E30063089C
:10042800B0009019182A192A362A2F0803191D2AEC
:100438001E2A3A2A0130AF022F08031D242A252A32
:100448003A2A0830A2000730A3000130E30063080D
:10045800AA0703302A02031C322A332A352AAA01A2
:100468003A2A3A2A1E30E3006308AF000F193D2AE2
:100478003E2A572A2D080319422A432A6C2A01309A
:10048800AD022D08031D492A4A2A6C2A0830A0000B
:100498000730A100F016701B522A532A552A7017EC
:1004A8006C2AF0176C2AF0121E30E3006308AD00C6
:1004B800F01F5F2A602A6C2AF0130130E3006308FA
:1004C800B50703303502031C6A2A6B2A6C2AB5016A
:1004D8008E1B6F2A702A912A2E080319742A752AEE
:1004E800962A0130AE022E08031D7B2A7C2A962A02
:1004F8000830A0000730A1007014701F842A852AD4
:10050800962A0130E3006308D90703305902031C17
:100518008E2A8F2A7F29D901962A70101E30E3006F
:100528006308AE0008000B112000660895006408F7
:1005380065040319A02AA12AA62A65088A00640866
:100548000A00823120003E080319AB2AAC2AAE2AE1
:100558000130BE023D080319B22AB32AB52A013078
:10056800BD023C080319B92ABA2ABC2A0130BC02C8
:100578003B080319C02AC12AC32A0130BB02530809
:1005880054040319C82AC92ACD2A0130D3020030DD
:10059800D43B570858040319D22AD32AD82A013041
:1005A800D7020030D83BFA2AE830D7000330D80009
:1005B800240825040319E12AE22AE62A0130A402C4
:1005C8000030A53B220823040319EB2AEC2AF02A61
:1005D8000130A2020030A33B200821040319F52AA8
:1005E800F62AFA2A0130A0020030A13BF11DFD2AAB
:1005F800FE2A1A2BF118012B022B282B2808290474
:100608000319072B082B0D2B0130A8020030A93B3A
:10061800282BF1140430F1067119132B142B192B04
:10062800F430D3000130D400282B282BF110711D91
:100638001E2B1F2B242B4030A8001F30A900282B6D
:100648009430A8001130A900F01E2B2B2C2B3A2B2C
:10065800550856040319312B322B372B0130D5029C
:100668000030D63B3E2B7013F0133E2BD030D50014
:100678000730D600260827040319432B442B492B9F
:100688000130A6020030A73BB52B14303602031CFC
:100698004E2B4F2B7A2BB6014E08D2004D08D100B5
:1006A8004C08D0004B08CF004208CE004108CD00CE
:1006B8004008CC003F08CB004608C2004508C100EE
:1006C8004408C0004308BF004A08C6004908C500DE
:1006D8004808C4004708C3005208CA005108C900A6
:1006E8005008C8004F08C7000130F1060130DE008D
:1006F8005E08B6076430A6000030A7001430F80082
:100708000030F9003A08DE00DF015E08F2005F08F9
:10071800F3003608E000E1016008F4006108F50024
:100728008631062682317308FB007208FA0085318B
:100738008425823178082000E2006208B90039086F
:100748003A02DE005E08B8000430DE005E08B90731
:100758000430DE005E08B8073A08043EDE005E0892
:10076800B70008002000530854040319BC2BBD2B04
:10077800CE2B220090100C128D100D128D110C1022
:100788008C100F138F1010108F120F108C120D1465
:100798000F16B42C711DD12BD22BE32B22009010F5
:1007A8000C168D140D168D150C148C140F178F1430
:1007B80010148F160F148C160D100F12B42C220063
:1007C8009014701AE82BE92BF52BF019EC2BED2B74
:1007D800F52B7019F02BF12BF52BF01CF42BF52BC6
:1007E8001E2C0D168D150C148C140F178F14101445
:1007F8008F160F148C160D100F1220008E18052C52
:10080800062C0A2C0E1C092C0A2C0D2C22000C126A
:100818000F2C22000C1620000C1B132C142C182C47
:100828008C1F172C182C1B2C22008D10B42C220086
:100838008D14B42C0C168D142D2C22000D168D1130
:100848004B2C22000D128D154B2C22000D168D15E8
:100858004B2C20002B082100A000A1012108003A00
:100868000319372C292C2008013A0319212C033AA3
:100878000319252C292C22000C148C105D2C220025
:100888000C108C145D2C22000C148C145D2C200090
:100898002A082100A000A1012108003A0319552CBB
:1008A800472C2008013A03193F2C033A0319432C1B
:1008B800472C701F602C612CAC2C0D140F16732C58
:1008C80022000F138F141014972C22000F178F106B
:1008D8001014972C22000F178F141010972C20003B
:1008E80035082100A000A1012108003A03197D2C38
:1008F800972C2008003A0319642C013A0319692C33
:10090800033A03196E2C972C22008F120F148C16A1
:10091800B42C22008F160F108C16B42C22008F16C0
:100928000F148C12B42C200059082100A000A1013A
:100938002108003A0319A12CB42C2008003A031905
:10094800882C013A03198D2C033A0319922CB42CE4
:100958000F178F1410148F160F148C160D100F12FA
:100968000800200020082104031DBB2CBC2CBD2C32
:100978007013701FC02CC12C7E2D701AC42CC52C6E
:100988007E2DF019C82CC92C7E2D7019CC2CCD2C9D
:100998007E2DF018D02CD12C7E2DE42C0430A00014
:1009A80020082000BA00692D0830A0002008200087
:1009B800BA00692D0C30A00020082000BA00692D6B
:1009C80059082100A000A1012108003A0319ED2CC3
:1009D800692D2008003A0319D22C013A0319D82CA2
:1009E800033A0319DE2C692D200037087D0203180D
:1009F800FE2CFF2C052D22000E168F158E150E15B8
:100A0800832D22000E128F118E110E11832D2000BE
:100A180039087D020318112D122D182D4E088A0051
:100A28004D080A0085311D2D4C088A004B080A0024
:100A38008531200038087D020318232D242D2A2D06
:100A48004A088A0049080A0085312F2D48088A007B
:100A580047080A008531200044088A0043080A0034
:100A68008531200040088A003F080A008531832D1F
:100A7800711C3F2D402D532D200039087D0203188D
:100A8800462D472D4D2D22000E168F158E150E154D
:100A9800832D22000E128F118E110E11832D20002E
:100AA80038087D020318592D5A2D602D22000E1684
:100AB8008F158E150E15832D22000E128F118E1193
:100AC8000E11832D2000B501832D2000350821004B
:100AD800A000A1012108003A0319732D662D2008F2
:100AE800003A0319F82C013A03190B2D033A03199C
:100AF8003C2D662D22000E128F118E110E1108004A
:100B08002000DB01F91F892D8A2D912DF809F9099B
:100B1800F80A0319F90ADB01DB0AFB1F942D952D4E
:100B28009E2DFA09FB09FA0A0319FB0A0130FC0099
:100B38007C08DB06DC01DD01780879040319A52DA2
:100B4800A62DD52DDA01DA0AB22D0130F835F90DC6
:100B5800890BAA2D0130FC007C08DA07F91FB52D96
:100B6800B62DA92D0130DC35DD0D890BB72D79089F
:100B78007B02031DC12D78087A02031CC42DC52DE4
:100B8800CA2D7808FA027908FB3B5C140130F93663
:100B9800F80C890BCB2D0130DA02031DD42DD52D8D
:100BA800B62D5B080319D92DDA2DDF2DDC09DD09F7
:100BB800DC0A0319DD0A5D08F9005C08F800080082
:100BC80003302200900063308F0033308C001A30DD
:100BD8008D008E010C30210090000C308C00E43028
:100BE8008D0080308E0084308F0023008F018D01AE
:100BF80090018C01240090018D012100951722009D
:100C08009D010800F601F701721C0B2E0C2E102E08
:100C18007408F6077508F73D0130F435F50D890BB2
:100C2800112E0130F336F20C890B162E720873045C
:100C3800031D1F2E202E082E7708F3007608F200D9
:100C4800080094340634A03406349D340634A9349C
:100C5800063497340634A33406349A340634A6345A
:100C680006349D340634A9340634F4340134D034BF
:100C78000734E8340334013421001508C039113829
:100C880095000A30200095000A30E3006308E6006A
:100C98000B118B16AD302100A0000630A100863163
:100CA8007426863108008631672686318B17813194
:100CB800772186318031332086318331B6238631DE
:100CC8005B2E803113288531E425863186317D26D7
:100CD8008631863190268631863140268631080055
:100CE800210021082000E500210020082000E40060
:100CF80008006A3021009900980122009601080036
:100D0800FE0012001E00FE0B852E003464008001D8
:100D18000131890B8B2E0034163021009700080012
:100D280022008E11080022000E12080022008F11E6
:100D3800080022000E11080022008E15080022006B
:100D48000E16080022008F15080022000E15080054
:040D58002834080033
:020000040001F9
:04000E0024EEFFDEFF
:00000001FF
